:100A79003F065B4F666D7D077F6F010204081020FA
:020A89004080AB
:1009D60004273F000000041D3C23D70A04193DCC20
:1009E600CCCD043200000000042300000000042CDB
:1009F6000000000008090000000001010107012BAA
:080A06000002210000010801BB
:090A8B00E4FFFE12011E12037BC0
:080A94008F993099FDC29922EF
:100A43007F55120A94E4FF120A94120A94E521FFD7
:0D0A5300120A94AF22120A947FAA020A949C
:100A0F00438780759850758920758DFD758BFDD244
:100A1F008E438901758C3C758AB0D2A9D28CD2884D
:100A2F00D28AD2A8D2AAD2ACD2BCD2AF75171375C4
:040A3F00188880FE95
:0300030002052DC6
:10052D00C0E0C0F0C083C082C0D075D000C000C094
:0D053D0001C002C003C004C005C006C00715
:10054A0090C100E0F53B90C200E0F53AF521853B09
:10055A0022853638853739853036853137FEC3E509
:10056A0018953BF531E5179EF530AB35AA34A9331A
:10057A00A832C000C001C002C003E5312537FDE53D
:10058A00303536FC120342E4FBFAF97840120227AE
:10059A00D003D002D001D00012002D8F358E348DB9
:1005AA00338C32E4FFFE7D7A7C44AB35AA34A9331E
:1005BA00A8321202C4600E400C75350075340075FD
:1005CA00337A753244E4FFFE7D7A7CC4AB35AA34B3
:1005DA00A933A8321202C4500C753500753400755F
:1005EA00337A7532C4C3E5319537FDE5309536FC6B
:1005FA001203428F268E258D248C23AC30AD31EC2C
:10060A00120342AB2AAA29A928A82712011EC0044C
:10061A00C005C006C007AF35AE34AD33AC32AB202F
:10062A00AA1FA91EA81D12011ED003D002D001D0F4
:10063A000012002DC004C005C006C007AF26AE25B3
:10064A00AD24AC23AB1CAA1BA91AA81912011ED0EF
:10065A0003D002D001D00012002D8F3F8E3E8D3D77
:10066A008C3CAF2FAE2EAD2DAC2CAB3FAA3EA93D94
:10067A00A83C12002D8F2F8E2E8D2D8C2CE4FFFE80
:10068A007D7F7C43AB2FAA2EA92DA82C1202C46011
:10069A000E400C752F00752E00752D7F752C43E4C6
:1006AA00FFFEFDFCAB2FAA2EA92DA82C1202C450C6
:1006BA000C752F00752E00752D00752C00AF2FAE0E
:1006CA002EAD2DAC2C12037B90C400EFF0AE3AAFE6
:1006DA003BE4FCFD7BA07A867901F81209588F0B5E
:1006EA00AE3AAF3BE4FCFD7BA07A867901F81209A9
:1006FA0058AE02AF038E3A8F3B7C277D101203FC63
:10070A008F0CAE3AAF3B7C277D101203FC8C3A8DDE
:10071A003BAE3AAF3B7C037DE81203FC8F0DAE3A49
:10072A00AF3B7C037DE81203FC8C3A8D3BAE3AAFBB
:10073A003B7C007D641203FC8F0EAE3AAF3B7C001B
:10074A007D641203FC8C3A8D3BAE3AAF3B7C007D54
:10075A000A1203FC8F0FAE3AAF3B7C007D0A1203EC
:08076A00FC8C3A8D3B853B102D
:10077200D007D006D005D004D003D002D001D000DB
:0B078200D0D0D082D083D0F0D0E03285
:03000B00020A6086
:100A6000C0E0C0D075D000C007758C3C758AB0124C
:090A70000A43D007D0D0D0E032D7
:0300130002099C43
:0D099C00C0E0C083C082C0D075D000C00094
:1009A90090E800E4F074092508F8E6900A79939034
:1009B900E400F0E508900A839390E800F0050853F5
:0209C90008071D
:0B09CB00D000D0D0D082D083D0E0322A
:0300230002078D44
:10078D00C0E0C0F0C083C082C0D075D000C000C032
:10079D0001C002C003C004C005C006C007209803F5
:1007AD000208ACC298AF2B052B74112FF8A699E552
:1007BD002B640660030208ACF52BE511FB7A00648F
:1007CD00557035E5126401702FE51664AA7029E5A0
:1007DD0014F517E515F518753500753400753300EA
:1007ED007532007F55120A947F06120A94E4FF12A7
:1007FD000A94120A940208A4EB64554A6003020895
:10080D00ACE512640260030208ACE51664AA60034D
:10081D000208ACAC13120347E4FBFA7920784112BD
:10082D0002278F2A8E298D288C27AC14E4120347BA
:10083D00E4FBFA79C878421202278F208E1F8D1E95
:10084D008C1DAC15E4120347E4FBFA7920784112B4
:10085D0002278F1C8E1B8D1A8C197F55120A947FBF
:10086D0006120A947D207C41AB2AAA29A928A82723
:10087D00120A8B7DC87C42AB20AA1FA91EA81D128F
:10088D000A8BE4FFFE7D207C41AB1CAA1BA91AA894
:10089D001912011E12037B120A947FAA120A9430B8
:1008AD009902C299D007D006D005D004D003D0024A
:0F08BD00D001D000D0D0D082D083D0F0D0E032A4
:100026000203E7E86480F8E933E83360110460F01E
:10003600ED33EC337009E8FCE9FDEAFEEBFF220440
:1000460060DED3EB9FEA9EE99DE8C2E78CF0C2F73B
:1000560095F0400CE8CCF8E9CDF9EACEFAEBCFFB07
:100066001203B285D0F05804700320D5B3E80470AB
:10007600075002B2D50203F192D5EC0460F7E4CC46
:10008600C0E0C398F8603B94186008400DD0E0FBD0
:100096000203C9E4FBFAC9FC8028E830E406E4C997
:1000A600FBE4CAFCE830E305E4C9CACBFCE8540724
:1000B6006010F8C3E913F9EA13FAEB13FBEC13FC2F
:1000C600D8F130F52FC3E49CFCEF9BFFEE9AFEEDD2
:1000D60099FDD0E0FBEF4E4D4C701222DB0302037C
:1000E600EEEC2CFCEF33FFEE33FEED33FDED30E7A7
:1000F600EB0203C9EF2BFFEE3AFEED39FDD0E0FB34
:1001060050130BBB00030203F1ED13FDEE13FEEFDC
:0801160013FFEC13FC0203C906
:10011E00EC4D6011E8497017ED33EC3304600DE4DB
:10012E00FCFFFEFD22E933E8330470F80203E71208
:10013E0003B258046009E4CC248150062850090209
:10014E0003F12840030203EEC0E0EB4A7044B9808D
:10015E0006D0E0FB0203DDEF4E701CBD8008EBFF06
:10016E00EAFEE9FD80EBE98DF0A4FEE5F002020760
:10017E00E9CDF9EAFEEBFFEF89F0A4FCE5F0CE89BC
:10018E00F0A42EFFE435F0CD89F0A42DFEE435F079
:10019E008067EF4E7005BD80D780C3EF8BF0A4ACA7
:1001AE00F0EE8BF0A42CFCE435F0F8EF8AF0A42CE2
:1001BE00E5F038FCE433CB8DF0A42CFCE5F03BF8F5
:1001CE00EE8AF0A42CFCE5F038F8E433CF89F0A4E5
:1001DE002CFCE5F038CF3400CE89F0A42FFFE5F0EB
:1001EE003EFEE433C98DF0A42EFEE5F039CD8AF043
:1001FE00A42FFFE5F03EFEE43DFD33D0E0FB5007BB
:10020E000BBB000F0203F1EC2CFCEF33FFEE33FEC1
:06021E00ED33FD0203C9EF
:100224000203F1EC5D046005E8590470030203E77E
:100234001203B2580460F6EC4860F2EC7004FDFE60
:10024400FF22C860DB2481C85009C39860025006AD
:100254000203EE9850CAF582E9294B4A7005AB8235
:100264000203DD75F0007C1A7880C3EF9BEE9AEDF3
:1002740099400DC3EF9BFFEE9AFEED99FDE842F025
:10028400DC23ACF0D0E0FFD0E0FED0E0FDAB822078
:10029400E7101BEB60BAEC2CFCEF33FFEE33FEED02
:1002A40033FD0203C9E803F830E705C0F075F00038
:1002B400EF2FFFEE33FEED33FD40B830E7C280AAE6
:1002C40074F8CC6480CCC86480C8F58204604FC3E1
:1002D400EB9FF5F0EA9E42F0E99D42F0E89C45F080
:1002E400603C501DE5825FFFE582D313CB5BCBF40A
:1002F4002B5582FB50280ABA002409B90020088033
:100304001DE5825BFBE582D313CF5FCFF4C3132FCC
:100314005582FF50090EBE00050DBD00010CC3EB54
:100324009FF5F0EA9E42F0E99D42F0E89C45F060BA
:0903340007CC4820E701B3EC22DC
:10033D0075F020800E75F010800575F0087D007E3B
:10034D00007F003392D530D503120451EC334010A9
:10035D00EF33FFEE33FEED33FDEC33FCD5F0ED2244
:0E036D00E5F0247EA2D513CC92E7CDCEFF2280
:10037B00EDD2E7CD33EC3392D524814006E4FFFE7A
:10038B00FDFC22FCE4CFCECDCC24E0501174FF80D9
:10039B00EDC3CC13CCCD13CDCE13CECF13CF047076
:0703AB00F030D5DE02045121
:1003B200E9D2E7C933E833F892D5EDD2E7CD33EC91
:0703C20033FC5002B2D5220A
:1003C900EC30E7100FBF000C0EBE00080DBD000495
:1003D9000BEB6014A2D5EB13FCED92E7FD2274FF41
:1003E900FCFDFEFF22E480F8A2D574FF13FC7D809A
:0303F900E480EFAE
:030000000208CC27
:0C08CC00787FE4F6D8FD75813F02091327
:1003FC00BC000BBE0029EF8DF084FFADF022E4CCE5
:10040C00F875F008EF2FFFEE33FEEC33FCEE9DECAD
:10041C00984005FCEE9DFE0FD5F0E9E4CEFD22EDF3
:10042C00F8F5F0EE8420D21CFEADF075F008EF2F3D
:10043C00FFED33FD4007985006D5F0F222C398FD2E
:05044C000FD5F0EA22CB
:10095800C2D5E830E70FB2D5E4C39BFBE49AFAE4CA
:1009680099F9E498F8EC30E717B2D512098E120419
:100978009BE4C39BFBE49AFAE499F9E498F88003B2
:1009880012049B30D50DE4C39FFFE49EFEE49DFD59
:04099800E49CFC22BD
:0E045100C3E49FFFE49EFEE49DFDE49CFC22BC
:1008D800020A0FE493A3F8E493A34003F68001F21D
:1008E80008DFF48029E493A3F85407240CC8C33321
:1008F800C4540F4420C8834004F456800146F6DFF0
:10090800E4800B01020408102040809009D6E47EA0
:10091800019360BCA3FF543F30E509541FFEE493E4
:10092800A360010ECF54C025E060A840B8E493A3AB
:10093800FAE493A3F8E493A3C8C582C8CAC583CAD6
:10094800F0A3C8C582C8CAC583CADFE9DEE780BE8E
:010A0E0000E7
:10045F0075F008758200EF2FFFEE33FECD33CDCC54
:10046F0033CCC58233C5829BED9AEC99E5829840D7
:10047F000CF582EE9BFEED9AFDEC99FC0FD5F0D6B4
:10048F00E4CEFBE4CDFAE4CCF9A88222B800C1B9DE
:10049F000059BA002DEC8BF084CFCECDFCE5F0CB1C
:1004AF00F97818EF2FFFEE33FEED33FDEC33FCEB55
:1004BF0033FB10D703994004EB99FB0FD8E5E4F910
:1004CF00FA227818EF2FFFEE33FEED33FDEC33FCFD
:1004DF00C933C910D7059BE99A4007EC9BFCE99AF1
:1004EF00F90FD8E0E4C9FAE4CCFB2275F010EF2F36
:1004FF00FFEE33FEED33FDCC33CCC833C810D70736
:10050F009BEC9AE899400AED9BFDEC9AFCE899F870
:0E051F000FD5F0DAE4CDFBE4CCFAE4C8F92203
:00000001FF
