:100A02003F065B4F666D7D077F6F01020408102071
:020A1200408022
:10093B0004293F000000041F3C23D70A041B3DCCB5
:10094B00CCCD043400000000042500000000042E70
:10095B0000000000080B0000000001010107012D41
:0C096B0000022300000209000001080146
:0300230002078D44
:10078D00C0E0C0F0C083C082C0D075D000C000C032
:10079D0001C002C003C004C005C006C007209803F5
:1007AD0002084BC298AF2D052D74132FF8A699E5AD
:1007BD002D6405600302084BF52DE513FB7A0064EB
:1007CD00557022E5146401701CE51764AA7016E5D6
:1007DD0015F519E516F51A753700753600753500DE
:1007ED007534008059EB64554A7053E514640270FA
:1007FD004DE51764AA7047AC15120347E4FBFA796F
:10080D002078411202278F2C8E2B8D2A8C29AC1625
:10081D00E4120347E4FBFA79C878421202278F22CB
:10082D008E218D208C1FAC17E4120347E4FBFA795F
:10083D002078411202278F1E8E1D8D1C8C1B309926
:10084D0002C299D007D006D005D004D003D002D073
:0E085D0001D000D0D0D082D083D0F0D0E032D5
:080006008F993099FDC2992287
:1009ED007F55120006E523FF120006AF2412000604
:0509FD007FAA020006C4
:10097800759850758920758DFD758BFDD28ED2883E
:10098800D28AD2A8D2AAD2ACD2AF751913751A8856
:10099800050AE50A70020509C39410E50994274081
:0B09A800EFE4F509F50A1209ED80E507
:0300030002052DC6
:10052D00C0E0C0F0C083C082C0D075D000C000C094
:0D053D0001C002C003C004C005C006C00715
:10054A0090C100E0F53D90C200E0F53CF523853D01
:10055A002485383A85393B853238853339FEC3E5F7
:10056A001A953DF533E5199EF532AB37AA36A9350A
:10057A00A834C000C001C002C003E5332539FDE537
:10058A00323538FC120342E4FBFAF97840120227AA
:10059A00D003D002D001D00012002D8F378E368DB5
:1005AA00358C34E4FFFE7D7A7C44AB37AA36A93514
:1005BA00A8341202C4600E400C75370075360075F7
:1005CA00357A753444E4FFFE7D7A7CC4AB37AA36AB
:1005DA00A935A8341202C4500C7537007536007557
:1005EA00357A7534C4C3E5339539FDE5329538FC5F
:1005FA001203428F288E278D268C25AC32AD33EC20
:10060A00120342AB2CAA2BA92AA82912011EC00444
:10061A00C005C006C007AF37AE36AD35AC34AB2225
:10062A00AA21A920A81F12011ED003D002D001D0EE
:10063A000012002DC004C005C006C007AF28AE27AF
:10064A00AD26AC25AB1EAA1DA91CA81B12011ED0E3
:10065A0003D002D001D00012002D8F418E408D3F71
:10066A008C3EAF31AE30AD2FAC2EAB41AA40A93F84
:10067A00A83E12002D8F318E308D2F8C2EE4FFFE76
:10068A007D7F7C43AB31AA30A92FA82E1202C46009
:10069A000E400C753100753000752F7F752E43E4BE
:1006AA00FFFEFDFCAB31AA30A92FA82E1202C450BE
:1006BA000C753100753000752F00752E00AF31AE04
:1006CA0030AD2FAC2E12037B90C400EFF0AE3CAFDE
:1006DA003DE4FCFD7BA07A867901F81208F78F0DBC
:1006EA00AE3CAF3DE4FCFD7BA07A867901F81208A6
:1006FA00F7AE02AF038E3C8F3D7C277D101203FCC0
:10070A008F0EAE3CAF3D7C277D101203FC8C3C8DD6
:10071A003DAE3CAF3D7C037DE81203FC8F0FAE3C3F
:10072A00AF3D7C037DE81203FC8C3C8D3DAE3CAFB3
:10073A003D7C007D641203FC8F10AE3CAF3D7C0013
:10074A007D641203FC8C3C8D3DAE3CAF3D7C007D4C
:10075A000A1203FC8F11AE3CAF3D7C007D0A1203E6
:08076A00FC8C3C8D3D853D1225
:10077200D007D006D005D004D003D002D001D000DB
:0B078200D0D0D082D083D0F0D0E03285
:030013000209B32C
:0D09B300C0E0C083C082C0D075D000C0007D
:1009C00090E800E4F0740B2508F8E6900A02939092
:1009D000E400F0E508900A0C9390E800F005085355
:0209E000080706
:0B09E200D000D0D0D082D083D0E03213
:100026000203E7E86480F8E933E83360110460F01E
:10003600ED33EC337009E8FCE9FDEAFEEBFF220440
:1000460060DED3EB9FEA9EE99DE8C2E78CF0C2F73B
:1000560095F0400CE8CCF8E9CDF9EACEFAEBCFFB07
:100066001203B285D0F05804700320D5B3E80470AB
:10007600075002B2D50203F192D5EC0460F7E4CC46
:10008600C0E0C398F8603B94186008400DD0E0FBD0
:100096000203C9E4FBFAC9FC8028E830E406E4C997
:1000A600FBE4CAFCE830E305E4C9CACBFCE8540724
:1000B6006010F8C3E913F9EA13FAEB13FBEC13FC2F
:1000C600D8F130F52FC3E49CFCEF9BFFEE9AFEEDD2
:1000D60099FDD0E0FBEF4E4D4C701222DB0302037C
:1000E600EEEC2CFCEF33FFEE33FEED33FDED30E7A7
:1000F600EB0203C9EF2BFFEE3AFEED39FDD0E0FB34
:1001060050130BBB00030203F1ED13FDEE13FEEFDC
:0801160013FFEC13FC0203C906
:10011E00EC4D6011E8497017ED33EC3304600DE4DB
:10012E00FCFFFEFD22E933E8330470F80203E71208
:10013E0003B258046009E4CC248150062850090209
:10014E0003F12840030203EEC0E0EB4A7044B9808D
:10015E0006D0E0FB0203DDEF4E701CBD8008EBFF06
:10016E00EAFEE9FD80EBE98DF0A4FEE5F002020760
:10017E00E9CDF9EAFEEBFFEF89F0A4FCE5F0CE89BC
:10018E00F0A42EFFE435F0CD89F0A42DFEE435F079
:10019E008067EF4E7005BD80D780C3EF8BF0A4ACA7
:1001AE00F0EE8BF0A42CFCE435F0F8EF8AF0A42CE2
:1001BE00E5F038FCE433CB8DF0A42CFCE5F03BF8F5
:1001CE00EE8AF0A42CFCE5F038F8E433CF89F0A4E5
:1001DE002CFCE5F038CF3400CE89F0A42FFFE5F0EB
:1001EE003EFEE433C98DF0A42EFEE5F039CD8AF043
:1001FE00A42FFFE5F03EFEE43DFD33D0E0FB5007BB
:10020E000BBB000F0203F1EC2CFCEF33FFEE33FEC1
:06021E00ED33FD0203C9EF
:100224000203F1EC5D046005E8590470030203E77E
:100234001203B2580460F6EC4860F2EC7004FDFE60
:10024400FF22C860DB2481C85009C39860025006AD
:100254000203EE9850CAF582E9294B4A7005AB8235
:100264000203DD75F0007C1A7880C3EF9BEE9AEDF3
:1002740099400DC3EF9BFFEE9AFEED99FDE842F025
:10028400DC23ACF0D0E0FFD0E0FED0E0FDAB822078
:10029400E7101BEB60BAEC2CFCEF33FFEE33FEED02
:1002A40033FD0203C9E803F830E705C0F075F00038
:1002B400EF2FFFEE33FEED33FD40B830E7C280AAE6
:1002C40074F8CC6480CCC86480C8F58204604FC3E1
:1002D400EB9FF5F0EA9E42F0E99D42F0E89C45F080
:1002E400603C501DE5825FFFE582D313CB5BCBF40A
:1002F4002B5582FB50280ABA002409B90020088033
:100304001DE5825BFBE582D313CF5FCFF4C3132FCC
:100314005582FF50090EBE00050DBD00010CC3EB54
:100324009FF5F0EA9E42F0E99D42F0E89C45F060BA
:0903340007CC4820E701B3EC22DC
:10033D0075F020800E75F010800575F0087D007E3B
:10034D00007F003392D530D503120451EC334010A9
:10035D00EF33FFEE33FEED33FDEC33FCD5F0ED2244
:0E036D00E5F0247EA2D513CC92E7CDCEFF2280
:10037B00EDD2E7CD33EC3392D524814006E4FFFE7A
:10038B00FDFC22FCE4CFCECDCC24E0501174FF80D9
:10039B00EDC3CC13CCCD13CDCE13CECF13CF047076
:0703AB00F030D5DE02045121
:1003B200E9D2E7C933E833F892D5EDD2E7CD33EC91
:0703C20033FC5002B2D5220A
:1003C900EC30E7100FBF000C0EBE00080DBD000495
:1003D9000BEB6014A2D5EB13FCED92E7FD2274FF41
:1003E900FCFDFEFF22E480F8A2D574FF13FC7D809A
:0303F900E480EFAE
:0300000002086B88
:0C086B00787FE4F6D8FD7581410208B2E8
:1003FC00BC000BBE0029EF8DF084FFADF022E4CCE5
:10040C00F875F008EF2FFFEE33FEEC33FCEE9DECAD
:10041C00984005FCEE9DFE0FD5F0E9E4CEFD22EDF3
:10042C00F8F5F0EE8420D21CFEADF075F008EF2F3D
:10043C00FFED33FD4007985006D5F0F222C398FD2E
:05044C000FD5F0EA22CB
:1008F700C2D5E830E70FB2D5E4C39BFBE49AFAE42C
:1009070099F9E498F8EC30E717B2D512092D1204DB
:100917009BE4C39BFBE49AFAE499F9E498F8800313
:1009270012049B30D50DE4C39FFFE49EFEE49DFDBA
:04093700E49CFC221E
:0E045100C3E49FFFE49EFEE49DFDE49CFC22BC
:10087700020978E493A3F8E493A34003F68001F216
:1008870008DFF48029E493A3F85407240CC8C33382
:10089700C4540F4420C8834004F456800146F6DF51
:1008A700E4800B010204081020408090093BE47E9D
:1008B700019360BCA3FF543F30E509541FFEE49346
:1008C700A360010ECF54C025E060A840B8E493A30D
:1008D700FAE493A3F8E493A3C8C582C8CAC583CA38
:1008E700F0A3C8C582C8CAC583CADFE9DEE780BEF0
:01097700007F
:10045F0075F008758200EF2FFFEE33FECD33CDCC54
:10046F0033CCC58233C5829BED9AEC99E5829840D7
:10047F000CF582EE9BFEED9AFDEC99FC0FD5F0D6B4
:10048F00E4CEFBE4CDFAE4CCF9A88222B800C1B9DE
:10049F000059BA002DEC8BF084CFCECDFCE5F0CB1C
:1004AF00F97818EF2FFFEE33FEED33FDEC33FCEB55
:1004BF0033FB10D703994004EB99FB0FD8E5E4F910
:1004CF00FA227818EF2FFFEE33FEED33FDEC33FCFD
:1004DF00C933C910D7059BE99A4007EC9BFCE99AF1
:1004EF00F90FD8E0E4C9FAE4CCFB2275F010EF2F36
:1004FF00FFEE33FEED33FDCC33CCC833C810D70736
:10050F009BEC9AE899400AED9BFDEC9AFCE899F870
:0E051F000FD5F0DAE4CDFBE4CCFAE4C8F92203
:00000001FF
